{
  "address": "0x563bA30e1336FB506ad0D2c35ee5037E76026235",
  "abi": [
    {
      "inputs": [],
      "stateMutability": "nonpayable",
      "type": "constructor"
    },
    {
      "inputs": [
        {
          "internalType": "address",
          "name": "target",
          "type": "address"
        }
      ],
      "name": "AddressEmptyCode",
      "type": "error"
    },
    {
      "inputs": [
        {
          "internalType": "address",
          "name": "implementation",
          "type": "address"
        }
      ],
      "name": "ERC1967InvalidImplementation",
      "type": "error"
    },
    {
      "inputs": [],
      "name": "ERC1967NonPayable",
      "type": "error"
    },
    {
      "inputs": [],
      "name": "FailedCall",
      "type": "error"
    },
    {
      "inputs": [],
      "name": "InvalidInitialization",
      "type": "error"
    },
    {
      "inputs": [],
      "name": "NotInitializing",
      "type": "error"
    },
    {
      "inputs": [
        {
          "internalType": "address",
          "name": "owner",
          "type": "address"
        }
      ],
      "name": "OwnableInvalidOwner",
      "type": "error"
    },
    {
      "inputs": [
        {
          "internalType": "address",
          "name": "account",
          "type": "address"
        }
      ],
      "name": "OwnableUnauthorizedAccount",
      "type": "error"
    },
    {
      "inputs": [],
      "name": "RouteProxyCallFailed",
      "type": "error"
    },
    {
      "inputs": [],
      "name": "UUPSUnauthorizedCallContext",
      "type": "error"
    },
    {
      "inputs": [
        {
          "internalType": "bytes32",
          "name": "slot",
          "type": "bytes32"
        }
      ],
      "name": "UUPSUnsupportedProxiableUUID",
      "type": "error"
    },
    {
      "inputs": [],
      "name": "Unauthorized",
      "type": "error"
    },
    {
      "anonymous": false,
      "inputs": [
        {
          "indexed": false,
          "internalType": "address",
          "name": "dodoRouteProxy",
          "type": "address"
        }
      ],
      "name": "DODORouteProxyUpdated",
      "type": "event"
    },
    {
      "anonymous": false,
      "inputs": [
        {
          "indexed": false,
          "internalType": "bytes32",
          "name": "externalId",
          "type": "bytes32"
        },
        {
          "indexed": false,
          "internalType": "address",
          "name": "fromToken",
          "type": "address"
        },
        {
          "indexed": false,
          "internalType": "address",
          "name": "toToken",
          "type": "address"
        },
        {
          "indexed": false,
          "internalType": "uint256",
          "name": "amount",
          "type": "uint256"
        },
        {
          "indexed": false,
          "internalType": "uint256",
          "name": "outputAmount",
          "type": "uint256"
        },
        {
          "indexed": false,
          "internalType": "address",
          "name": "walletAddress",
          "type": "address"
        }
      ],
      "name": "EddyCrossChainSwap",
      "type": "event"
    },
    {
      "anonymous": false,
      "inputs": [
        {
          "indexed": false,
          "internalType": "bytes32",
          "name": "externalId",
          "type": "bytes32"
        },
        {
          "indexed": false,
          "internalType": "address",
          "name": "token",
          "type": "address"
        },
        {
          "indexed": false,
          "internalType": "uint256",
          "name": "amount",
          "type": "uint256"
        },
        {
          "indexed": false,
          "internalType": "address",
          "name": "walletAddress",
          "type": "address"
        }
      ],
      "name": "EddyCrossChainSwapRevert",
      "type": "event"
    },
    {
      "anonymous": false,
      "inputs": [
        {
          "indexed": false,
          "internalType": "address",
          "name": "gateway",
          "type": "address"
        }
      ],
      "name": "GatewayUpdated",
      "type": "event"
    },
    {
      "anonymous": false,
      "inputs": [
        {
          "indexed": false,
          "internalType": "uint64",
          "name": "version",
          "type": "uint64"
        }
      ],
      "name": "Initialized",
      "type": "event"
    },
    {
      "anonymous": false,
      "inputs": [
        {
          "indexed": true,
          "internalType": "address",
          "name": "previousOwner",
          "type": "address"
        },
        {
          "indexed": true,
          "internalType": "address",
          "name": "newOwner",
          "type": "address"
        }
      ],
      "name": "OwnershipTransferred",
      "type": "event"
    },
    {
      "anonymous": false,
      "inputs": [
        {
          "indexed": true,
          "internalType": "address",
          "name": "implementation",
          "type": "address"
        }
      ],
      "name": "Upgraded",
      "type": "event"
    },
    {
      "stateMutability": "payable",
      "type": "fallback"
    },
    {
      "inputs": [],
      "name": "DODOApprove",
      "outputs": [
        {
          "internalType": "address",
          "name": "",
          "type": "address"
        }
      ],
      "stateMutability": "view",
      "type": "function"
    },
    {
      "inputs": [],
      "name": "DODORouteProxy",
      "outputs": [
        {
          "internalType": "address",
          "name": "",
          "type": "address"
        }
      ],
      "stateMutability": "view",
      "type": "function"
    },
    {
      "inputs": [],
      "name": "UPGRADE_INTERFACE_VERSION",
      "outputs": [
        {
          "internalType": "string",
          "name": "",
          "type": "string"
        }
      ],
      "stateMutability": "view",
      "type": "function"
    },
    {
      "inputs": [
        {
          "internalType": "address",
          "name": "targetContract",
          "type": "address"
        },
        {
          "internalType": "uint256",
          "name": "amount",
          "type": "uint256"
        },
        {
          "internalType": "address",
          "name": "asset",
          "type": "address"
        },
        {
          "internalType": "bytes",
          "name": "payload",
          "type": "bytes"
        }
      ],
      "name": "depositAndCall",
      "outputs": [],
      "stateMutability": "nonpayable",
      "type": "function"
    },
    {
      "inputs": [
        {
          "internalType": "address",
          "name": "fromToken",
          "type": "address"
        },
        {
          "internalType": "uint256",
          "name": "amount",
          "type": "uint256"
        },
        {
          "internalType": "bytes",
          "name": "swapData",
          "type": "bytes"
        },
        {
          "internalType": "address",
          "name": "targetContract",
          "type": "address"
        },
        {
          "internalType": "address",
          "name": "asset",
          "type": "address"
        },
        {
          "internalType": "bytes",
          "name": "payload",
          "type": "bytes"
        }
      ],
      "name": "depositAndCall",
      "outputs": [],
      "stateMutability": "nonpayable",
      "type": "function"
    },
    {
      "inputs": [],
      "name": "gasLimit",
      "outputs": [
        {
          "internalType": "uint256",
          "name": "",
          "type": "uint256"
        }
      ],
      "stateMutability": "view",
      "type": "function"
    },
    {
      "inputs": [],
      "name": "gateway",
      "outputs": [
        {
          "internalType": "contract GatewayEVM",
          "name": "",
          "type": "address"
        }
      ],
      "stateMutability": "view",
      "type": "function"
    },
    {
      "inputs": [],
      "name": "globalNonce",
      "outputs": [
        {
          "internalType": "uint256",
          "name": "",
          "type": "uint256"
        }
      ],
      "stateMutability": "view",
      "type": "function"
    },
    {
      "inputs": [
        {
          "internalType": "address payable",
          "name": "_gateway",
          "type": "address"
        },
        {
          "internalType": "address",
          "name": "_dodoRouteProxy",
          "type": "address"
        },
        {
          "internalType": "uint256",
          "name": "_gasLimit",
          "type": "uint256"
        }
      ],
      "name": "initialize",
      "outputs": [],
      "stateMutability": "nonpayable",
      "type": "function"
    },
    {
      "inputs": [
        {
          "components": [
            {
              "internalType": "address",
              "name": "sender",
              "type": "address"
            }
          ],
          "internalType": "struct MessageContext",
          "name": "",
          "type": "tuple"
        },
        {
          "internalType": "bytes",
          "name": "message",
          "type": "bytes"
        }
      ],
      "name": "onCall",
      "outputs": [
        {
          "internalType": "bytes4",
          "name": "",
          "type": "bytes4"
        }
      ],
      "stateMutability": "payable",
      "type": "function"
    },
    {
      "inputs": [
        {
          "components": [
            {
              "internalType": "address",
              "name": "sender",
              "type": "address"
            },
            {
              "internalType": "address",
              "name": "asset",
              "type": "address"
            },
            {
              "internalType": "uint256",
              "name": "amount",
              "type": "uint256"
            },
            {
              "internalType": "bytes",
              "name": "revertMessage",
              "type": "bytes"
            }
          ],
          "internalType": "struct RevertContext",
          "name": "context",
          "type": "tuple"
        }
      ],
      "name": "onRevert",
      "outputs": [],
      "stateMutability": "nonpayable",
      "type": "function"
    },
    {
      "inputs": [],
      "name": "owner",
      "outputs": [
        {
          "internalType": "address",
          "name": "",
          "type": "address"
        }
      ],
      "stateMutability": "view",
      "type": "function"
    },
    {
      "inputs": [],
      "name": "proxiableUUID",
      "outputs": [
        {
          "internalType": "bytes32",
          "name": "",
          "type": "bytes32"
        }
      ],
      "stateMutability": "view",
      "type": "function"
    },
    {
      "inputs": [],
      "name": "renounceOwnership",
      "outputs": [],
      "stateMutability": "nonpayable",
      "type": "function"
    },
    {
      "inputs": [
        {
          "internalType": "address",
          "name": "_dodoRouteProxy",
          "type": "address"
        }
      ],
      "name": "setDODORouteProxy",
      "outputs": [],
      "stateMutability": "nonpayable",
      "type": "function"
    },
    {
      "inputs": [
        {
          "internalType": "uint256",
          "name": "_gasLimit",
          "type": "uint256"
        }
      ],
      "name": "setGasLimit",
      "outputs": [],
      "stateMutability": "nonpayable",
      "type": "function"
    },
    {
      "inputs": [
        {
          "internalType": "address",
          "name": "_gateway",
          "type": "address"
        }
      ],
      "name": "setGateway",
      "outputs": [],
      "stateMutability": "nonpayable",
      "type": "function"
    },
    {
      "inputs": [
        {
          "internalType": "address",
          "name": "_owner",
          "type": "address"
        }
      ],
      "name": "setOwner",
      "outputs": [],
      "stateMutability": "nonpayable",
      "type": "function"
    },
    {
      "inputs": [
        {
          "internalType": "address",
          "name": "newOwner",
          "type": "address"
        }
      ],
      "name": "transferOwnership",
      "outputs": [],
      "stateMutability": "nonpayable",
      "type": "function"
    },
    {
      "inputs": [
        {
          "internalType": "address",
          "name": "newImplementation",
          "type": "address"
        },
        {
          "internalType": "bytes",
          "name": "data",
          "type": "bytes"
        }
      ],
      "name": "upgradeToAndCall",
      "outputs": [],
      "stateMutability": "payable",
      "type": "function"
    },
    {
      "stateMutability": "payable",
      "type": "receive"
    }
  ],
  "transactionHash": "0x2ad0f115a827b09dac265f914a45fce737cc21350284d89d64afab98e79d18d2",
  "args": [],
  "numDeployments": 1,
  "solcInputHash": "f942b908fc7b451a65eeb4001dfbb0f4",
  "bytecode": "0x60a080604052346100ea57306080527ff0c57e16840df040f15088dc2f81fe391c3923bec73e23a9662efc9c229c6a005460ff8160401c166100d9576002600160401b03196001600160401b03821601610073575b60405161184f90816100f08239608051818181610e1b0152610eaf0152f35b6001600160401b0319166001600160401b039081177ff0c57e16840df040f15088dc2f81fe391c3923bec73e23a9662efc9c229c6a005581527fc7f505b2f371ae2175ee4913f4499e1f2633a7b5936321eed1cdaeb6115181d290602090a13880610054565b63f92ee8a960e01b60005260046000fd5b600080fdfe608080604052600436101561001a575b50361561001857005b005b600090813560e01c908163116191b6146113255750806313af403514611300578063154a0362146112d75780631794bb3c146110a25780632df2da221461107957806337e232221461105c5780634f1ef28614610e7057806352d1902d14610e08578063676cc05414610b48578063715018a614610ade5780638991ac8414610a705780638c6f037f146108245780638da5cb5b146107ee57806390646b4a14610780578063ad3cb1cc14610733578063c9028a3614610551578063e5008e691461016f578063ee7d72b41461014c578063f2fde38b1461011f5763f68016b70361000f573461011c578060031936011261011c576020600154604051908152f35b80fd5b503461011c57602036600319011261011c5761014961013c61134a565b61014461168f565b611619565b80f35b503461011c57602036600319011261011c5761016661168f565b60043560015580f35b503461011c5760c036600319011261011c5761018961134a565b602435906044356001600160401b03811161054d576101ac90369060040161142d565b606435939192916001600160a01b038516850361043f576084356001600160a01b038116959094908686036105495760a4356001600160401b038111610545576101fa90369060040161142d565b6040516323b872dd60e01b8152336004820152306024820152604481018690526001600160a01b0388169692949192906020816064818f8c5af190811561053a578c9161051b575b50156104c1578a916102a1916102588454611537565b8455602088610266336116c5565b60035460405163095ea7b360e01b81526001600160a01b03909116600482015260248101929092529a90948591908290889082906044820190565b03925af19283156104b6578493610499575b508260018060a01b036002541692826040519384928337810182815203925af16102db6114ce565b901561048a5780516020808301926000928101031261011c5750516004805460405163095ea7b360e01b81526001600160a01b03909116918101919091526024810182905290988a949392906020908390604490829089905af191821561047f5761035992610452575b506004546001600160a01b0316938761155c565b60408051602081018890526001600160a01b038a169181019190915260608101869052336080808301919091528152909261039560a0836113aa565b600154604051926103a584611379565b3084526001602085015286604085015260608401526080830152803b1561044e57898580946103ec8c9560405198899788968795631a13c76f60e31b87526004870161158d565b03925af1801561044357610426575b5050906000805160206117da83398151915294610420926040519586953394876114fe565b0390a180f35b81610433919493946113aa565b61043f579085386103fb565b8580fd5b6040513d84823e3d90fd5b8480fd5b6104739060203d602011610478575b61046b81836113aa565b8101906114b6565b610345565b503d610461565b6040513d87823e3d90fd5b6362c3354560e01b8a5260048afd5b6104b19060203d6020116104785761046b81836113aa565b6102b3565b6040513d86823e3d90fd5b60405162461bcd60e51b815260206004820152602c60248201527f494e53554646494349454e5420414c4c4f57414e43453a205452414e5346455260448201526b08119493d34811905253115160a21b6064820152608490fd5b610534915060203d6020116104785761046b81836113aa565b38610242565b6040513d8e823e3d90fd5b8880fd5b8780fd5b8380fd5b503461011c57602036600319011261011c576004356001600160401b03811161072f5780360390608060031983011261071d576004546001600160a01b03163303610721576064810135916022190182121561071d570160048101356001600160401b03811161071d576024820190803603821361054d5760809083018390031261071d576105e260448301611365565b906105f4608460648501359401611365565b60405163a9059cbb60e01b602082019081526001600160a01b039283166024830181905260448301879052959290941693869182919061064181606481015b03601f1981018352826113aa565b519082875af161064f6114ce565b816106ee575b50156106a95760408051923583526001600160a01b039384166020840152820152911660608201527fb347100c61795eefdce4403ba6e370db87bec8db377265e0f7d914b1cbe0276b908060808101610420565b60405162461bcd60e51b815260206004820152601f60248201527f5472616e7366657248656c7065723a205452414e534645525f4641494c4544006044820152606490fd5b8051801592508215610703575b505038610655565b61071692506020809183010191016114b6565b38806106fb565b8280fd5b6282b42960e81b8352600483fd5b5080fd5b503461011c578060031936011261011c575061077c6040516107566040826113aa565b60058152640352e302e360dc1b602082015260405191829160208352602083019061147d565b0390f35b503461011c57602036600319011261011c577ff01fde40131396fd2f417fae830fea338256f1ecc896f2fa4f0354fd4554712c60206107bd61134a565b6107c561168f565b600480546001600160a01b0319166001600160a01b03929092169182179055604051908152a180f35b503461011c578060031936011261011c5760008051602061179a833981519152546040516001600160a01b039091168152602090f35b503461011c57608036600319011261011c5761083e61134a565b6044356001600160a01b0381169291602435919084820361054d576064356001600160401b03811161044e5761087890369060040161142d565b6108828654611537565b865561088d336116c5565b6040516323b872dd60e01b8152336004820152306024820152604481018790529097906020816064818b865af18015610a655761090c926020928992610a4a575b506004805460405163095ea7b360e01b81526001600160a01b03909116918101919091526024810192909252909283919082908b9082906044820190565b03925af18015610a3f57906109359291610a22575b506004546001600160a01b0316928861155c565b60408051602081018990526001600160a01b038616918101919091526060810186905233608082015290929061096e8160a08101610633565b6001546040519161097e83611379565b3083526001602084015288604084015260608301526080820152823b15610a1e5791858786936109c6829660405198899788968795631a13c76f60e31b87526004870161158d565b03925af180156104b6576109fa575b506104206000805160206117da833981519152939483604051948486953394876114fe565b83610a176000805160206117da83398151915295610420936113aa565b93506109d5565b8680fd5b610a3a9060203d6020116104785761046b81836113aa565b610921565b6040513d89823e3d90fd5b610a6090843d86116104785761046b81836113aa565b6108ce565b6040513d8a823e3d90fd5b503461011c57602036600319011261011c577f35af8291457e73e7f2be1db2aebc8d9af97aa7aefd20d0cf5365d33b71f1f9f36020610aad61134a565b610ab561168f565b600280546001600160a01b0319166001600160a01b03929092169182179055604051908152a180f35b503461011c578060031936011261011c57610af761168f565b60008051602061179a83398151915280546001600160a01b0319811690915581906001600160a01b03167f8be0079c531659141344cd1fd0a4f28419497f9722a3daafe3b4186f6b6457e08280a380f35b5036600319016040811261072f5760201361011c576024356001600160401b03811161072f57610b7c90369060040161142d565b6004546001600160a01b031633036107215781019060808183031261071d57610ba760208201611365565b916040820135906060830135906001600160401b03821161043f57610bcd9184016113e6565b9260018060a01b03169083518401906060856020840193031261043f5785610bf7602087016114a2565b92610c04604088016114a2565b966060810151906001600160401b03821161054d57019381603f8601121561071d57602085015194610c35866113cb565b95610c4360405197886113aa565b80875260208701936040838301011161044e57836040610c63930161145a565b6040516323b872dd60e01b8152336004820152306024820152604481018590526001600160a01b0391821698909116949091602083606481878d5af19283156104b657610ce693610deb575b5060025460405163095ea7b360e01b81526001600160a01b0390911660048201526024810186905292602090849081906044820190565b0381878d5af19283156104b6578493610dce575b5060025491519183906001600160a01b03165af1610d166114ce565b9015610dbf5760208151918180820193849201010312610a1e575160405163a9059cbb60e01b81526001600160a01b0385166004820152602481018290529092906020816044818b865af18015610a655792889795926000805160206117da833981519152979592610d999560209b50610da4575b5060405196879635876114fe565b0390a1604051908152f35b610dba908b3d8d116104785761046b81836113aa565b610d8b565b6362c3354560e01b8752600487fd5b610de69060203d6020116104785761046b81836113aa565b610cfa565b610e039060203d6020116104785761046b81836113aa565b610caf565b503461011c578060031936011261011c577f00000000000000000000000000000000000000000000000000000000000000006001600160a01b03163003610e615760206040516000805160206117ba8339815191528152f35b63703e46dd60e11b8152600490fd5b50604036600319011261011c57610e8561134a565b906024356001600160401b03811161072f57610ea59036906004016113e6565b6001600160a01b037f000000000000000000000000000000000000000000000000000000000000000016308114908115611039575b5061102a57610ee761168f565b6040516352d1902d60e01b8152926001600160a01b0381169190602085600481865afa80958596610ff6575b50610f2c57634c9c8ce360e01b84526004839052602484fd5b9091846000805160206117ba8339815191528103610fe45750813b15610fd2576000805160206117ba83398151915280546001600160a01b031916821790557fbc7cd75a20ee27fd9adebab32041f755214dbc6bffa90cc0225b39da2e5c2d3b8480a28151839015610fb85780836020610fb495519101845af4610fae6114ce565b91611738565b5080f35b50505034610fc35780f35b63b398979f60e01b8152600490fd5b634c9c8ce360e01b8452600452602483fd5b632a87526960e21b8552600452602484fd5b9095506020813d602011611022575b81611012602093836113aa565b8101031261044e57519438610f13565b3d9150611005565b63703e46dd60e11b8252600482fd5b6000805160206117ba833981519152546001600160a01b03161415905038610eda565b503461011c578060031936011261011c5760209054604051908152f35b503461011c578060031936011261011c576003546040516001600160a01b039091168152602090f35b503461011c57606036600319011261011c576110bc61134a565b6024356001600160a01b0381169081900361071d576000805160206117fa833981519152549160ff8360401c1615926001600160401b038116801590816112cf575b60011490816112c5575b1590816112bc575b506112ad57916020916004938560016001600160401b03198316176000805160206117fa83398151915255611280575b5061114961170a565b61115161170a565b61115a33611619565b61116261170a565b60018060a01b03166001600160601b0360a01b845416178355806001600160601b0360a01b6002541617600255604051928380926375ccdf0960e11b82525afa908115611275578391611233575b5060018060a01b03166001600160601b0360a01b60035416176003556044356001556111d95780f35b68ff0000000000000000196000805160206117fa83398151915254166000805160206117fa833981519152557fc7f505b2f371ae2175ee4913f4499e1f2633a7b5936321eed1cdaeb6115181d2602060405160018152a180f35b90506020813d60201161126d575b8161124e602093836113aa565b8101031261071d57516001600160a01b038116810361071d57386111b0565b3d9150611241565b6040513d85823e3d90fd5b68ffffffffffffffffff191668010000000000000001176000805160206117fa8339815191525538611140565b63f92ee8a960e01b8552600485fd5b90501538611110565b303b159150611108565b8591506110fe565b503461011c578060031936011261011c576002546040516001600160a01b039091168152602090f35b503461011c57602036600319011261011c5761014961131d61134a565b61013c61168f565b90503461072f578160031936011261072f576004546001600160a01b03168152602090f35b600435906001600160a01b038216820361136057565b600080fd5b35906001600160a01b038216820361136057565b60a081019081106001600160401b0382111761139457604052565b634e487b7160e01b600052604160045260246000fd5b90601f801991011681019081106001600160401b0382111761139457604052565b6001600160401b03811161139457601f01601f191660200190565b81601f82011215611360578035906113fd826113cb565b9261140b60405194856113aa565b8284526020838301011161136057816000926020809301838601378301015290565b9181601f84011215611360578235916001600160401b038311611360576020838186019501011161136057565b60005b83811061146d5750506000910152565b818101518382015260200161145d565b906020916114968151809281855285808601910161145a565b601f01601f1916010190565b51906001600160a01b038216820361136057565b90816020910312611360575180151581036113605790565b3d156114f9573d906114df826113cb565b916114ed60405193846113aa565b82523d6000602084013e565b606090565b9081526001600160a01b03918216602082015291811660408301526060820192909252608081019290925290911660a082015260c00190565b60001981146115465760010190565b634e487b7160e01b600052601160045260246000fd5b60409061158b92949380835196879360208501528484013781016000838201520301601f1981018452836113aa565b565b6001600160a01b0391821681526020810192909252909116604082015260a06060820181905290916115c19183019061147d565b90608081830391015260018060a01b03825116815260208201511515602082015260018060a01b036040830151166040820152608080611610606085015160a0606086015260a085019061147d565b93015191015290565b6001600160a01b031680156116795760008051602061179a83398151915280546001600160a01b0319811683179091556001600160a01b03167f8be0079c531659141344cd1fd0a4f28419497f9722a3daafe3b4186f6b6457e0600080a3565b631e4fbdf760e01b600052600060045260246000fd5b60008051602061179a833981519152546001600160a01b031633036116b057565b63118cdaa760e01b6000523360045260246000fd5b6000546040519060208201923060601b84526001600160601b03199060601b1660348301526048820152426068820152606881526117046088826113aa565b51902090565b60ff6000805160206117fa8339815191525460401c161561172757565b631afcd79f60e31b60005260046000fd5b9061175e575080511561174d57805190602001fd5b63d6bda27560e01b60005260046000fd5b81511580611790575b61176f575090565b639996b31560e01b60009081526001600160a01b0391909116600452602490fd5b50803b1561176756fe9016d09d72d40fdae2fd8ceac6b6234c7706214fd39c1cd1e609a0528c199300360894a13ba1a3210667c828492db98dca3e2076cc3735a920a3ca505d382bbcc7069c210b9b625e0c927417457a963e6ae74b9e6703ce04361f22e6407f09daf0c57e16840df040f15088dc2f81fe391c3923bec73e23a9662efc9c229c6a00a264697066735822122085311d1e95b2dfd7ad45c5bb7fb6e990ad0247be567cf000665fff3c095489d964736f6c634300081a0033",
  "devdoc": {
    "errors": {
      "AddressEmptyCode(address)": [
        {
          "details": "There's no code at `target` (it is not a contract)."
        }
      ],
      "ERC1967InvalidImplementation(address)": [
        {
          "details": "The `implementation` of the proxy is invalid."
        }
      ],
      "ERC1967NonPayable()": [
        {
          "details": "An upgrade function sees `msg.value > 0` that may be lost."
        }
      ],
      "FailedCall()": [
        {
          "details": "A call to an address target failed. The target may have reverted."
        }
      ],
      "InvalidInitialization()": [
        {
          "details": "The contract is already initialized."
        }
      ],
      "NotInitializing()": [
        {
          "details": "The contract is not initializing."
        }
      ],
      "OwnableInvalidOwner(address)": [
        {
          "details": "The owner is not a valid owner account. (eg. `address(0)`)"
        }
      ],
      "OwnableUnauthorizedAccount(address)": [
        {
          "details": "The caller account is not authorized to perform an operation."
        }
      ],
      "UUPSUnauthorizedCallContext()": [
        {
          "details": "The call is from an unauthorized context."
        }
      ],
      "UUPSUnsupportedProxiableUUID(bytes32)": [
        {
          "details": "The storage `slot` is unsupported as a UUID."
        }
      ]
    },
    "events": {
      "Initialized(uint64)": {
        "details": "Triggered when the contract has been initialized or reinitialized."
      },
      "Upgraded(address)": {
        "details": "Emitted when the implementation is upgraded."
      }
    },
    "kind": "dev",
    "methods": {
      "initialize(address,address,uint256)": {
        "details": "Initialize the contract",
        "params": {
          "_dodoRouteProxy": "Address of the DODORouteProxy",
          "_gateway": "Gateway contract address"
        }
      },
      "onRevert((address,address,uint256,bytes))": {
        "details": "Only the gateway can call this function",
        "params": {
          "context": "Revert context"
        }
      },
      "owner()": {
        "details": "Returns the address of the current owner."
      },
      "proxiableUUID()": {
        "details": "Implementation of the ERC-1822 {proxiableUUID} function. This returns the storage slot used by the implementation. It is used to validate the implementation's compatibility when performing an upgrade. IMPORTANT: A proxy pointing at a proxiable contract should not be considered proxiable itself, because this risks bricking a proxy that upgrades to it, by delegating to itself until out of gas. Thus it is critical that this function revert if invoked through a proxy. This is guaranteed by the `notDelegated` modifier."
      },
      "renounceOwnership()": {
        "details": "Leaves the contract without owner. It will not be possible to call `onlyOwner` functions. Can only be called by the current owner. NOTE: Renouncing ownership will leave the contract without an owner, thereby disabling any functionality that is only available to the owner."
      },
      "transferOwnership(address)": {
        "details": "Transfers ownership of the contract to a new account (`newOwner`). Can only be called by the current owner."
      },
      "upgradeToAndCall(address,bytes)": {
        "custom:oz-upgrades-unsafe-allow-reachable": "delegatecall",
        "details": "Upgrade the implementation of the proxy to `newImplementation`, and subsequently execute the function call encoded in `data`. Calls {_authorizeUpgrade}. Emits an {Upgraded} event."
      }
    },
    "version": 1
  },
  "userdoc": {
    "kind": "user",
    "methods": {
      "onRevert((address,address,uint256,bytes))": {
        "notice": "Function called by the gateway to revert the cross-chain swap"
      }
    },
    "version": 1
  },
  "storageLayout": {
    "storage": [
      {
        "astId": 16524,
        "contract": "contracts/GatewaySend.sol:GatewaySend",
        "label": "globalNonce",
        "offset": 0,
        "slot": "0",
        "type": "t_uint256"
      },
      {
        "astId": 16526,
        "contract": "contracts/GatewaySend.sol:GatewaySend",
        "label": "gasLimit",
        "offset": 0,
        "slot": "1",
        "type": "t_uint256"
      },
      {
        "astId": 16528,
        "contract": "contracts/GatewaySend.sol:GatewaySend",
        "label": "DODORouteProxy",
        "offset": 0,
        "slot": "2",
        "type": "t_address"
      },
      {
        "astId": 16530,
        "contract": "contracts/GatewaySend.sol:GatewaySend",
        "label": "DODOApprove",
        "offset": 0,
        "slot": "3",
        "type": "t_address"
      },
      {
        "astId": 16533,
        "contract": "contracts/GatewaySend.sol:GatewaySend",
        "label": "gateway",
        "offset": 0,
        "slot": "4",
        "type": "t_contract(GatewayEVM)6738"
      }
    ],
    "types": {
      "t_address": {
        "encoding": "inplace",
        "label": "address",
        "numberOfBytes": "20"
      },
      "t_contract(GatewayEVM)6738": {
        "encoding": "inplace",
        "label": "contract GatewayEVM",
        "numberOfBytes": "20"
      },
      "t_uint256": {
        "encoding": "inplace",
        "label": "uint256",
        "numberOfBytes": "32"
      }
    }
  }
}